:100000000C9458050C949F050C949F050C949F0527
:100010000C949F050C949F050C949F050C949F05D0
:100020000C949F050C949F050C94FA240C94CC25F9
:100030000C9463180C949F050C949F050C949F05D9
:100040000C949F050C949F050C949F050C949F05A0
:100050000C949F050C94D7180C949F050C949F0545
:100060000C949F050C949F050C949F050C949F0580
:100070000C949F050C949F050C949F050C949F0570
:100080000C949F050C949F050C949F050C949F0560
:100090000C949F050C949F050C949F050C949F0550
:1000A0000C949F050C949F050C949F051707190746
:1000B00024071B071D071F072107230726072807FB
:1000C0002A0735072C072E07300732073407370772
:1000D000C50EC50EF70EF70E350F550FC510C5101E
:1000E000970FC51044104410B510C510C510BE10B0
:1000F00051105110511051105110511051105110F8
:1001000051105110511051105110511051105110E7
:100110006210701077107E108810541154116611FF
:1001200066115D1166116611661154115411621148
:100130006611661162113926602652276026522701
:10014000AC26CF265227252734271E001F0020006B
:1001500021412200230024002542CA5CC95CC55C01
:10016000C65C0100C35CC45C0100B300B100A9001F
:10017000A800B400B200AA00010044454255473A25
:1001800020656E61626C65642E0A000A00253038B5
:1001900062003A200025303258000A722F63203066
:1001A000313233343536370A000A002530325820D0
:1001B000006B6579626F6172645F7265706F7274F3
:1001C0003A20000A0025303258006B6579626F6171
:1001D00072645F7365745F6C65643A2000290A007D
:1001E0002575002F002575005D280025640020007E
:1001F000256400200025640020002564007C002583
:10020000303258006D6F7573656B6579205B627471
:100210006E7C782079207620685D287265702F6169
:10022000636C293A205B006D6B5F776865656C5F76
:1002300074696D655F746F5F6D6178203D20256422
:100240000A006D6B5F776865656C5F6D61785F73E1
:1002500070656564203D2025640A006D6B5F7469DC
:100260006D655F746F5F6D6178203D2025640A00C5
:100270006D6B5F6D61785F7370656564203D2025EF
:10028000640A006D6B5F696E74657276616C203D07
:100290002025640A006D6B5F64656C6179203D20E8
:1002A00025640A006D6B5F776865656C5F74696DC6
:1002B000655F746F5F6D6178203D2025640A006D75
:1002C0006B5F776865656C5F6D61785F737065659E
:1002D00064203D2025640A006D6B5F74696D655F65
:1002E000746F5F6D6178203D2025640A006D6B5F3F
:1002F0006D61785F7370656564203D2025640A0038
:100300006D6B5F696E74657276616C203D2025644B
:100310000A006D6B5F64656C6179203D2025640A7D
:10032000000A00257500363A20776865656C5F74B1
:10033000696D655F746F5F6D61783A20000A002512
:100340007500353A20776865656C5F6D61785F731D
:10035000706565643A20000A00257500343A2074FF
:10036000696D655F746F5F6D61783A20000A0025E2
:100370007500333A206D61785F73706565643A206B
:10038000000A00257500323A20696E746572766144
:100390006C286D73293A20000A00257500313A2037
:1003A00064656C6179282A31306D73293A20000A1E
:1003B000092D2056616C756573202D0A004D3E0095
:1003C0004D25643E20003F007365742064656661BE
:1003D000756C740A00433E2000776865726520647E
:1003E000656C74613A20637572736F723D25642C7D
:1003F00020776865656C3D25640A536565206874DF
:1004000074703A2F2F656E2E77696B697065646919
:10041000612E6F72672F77696B692F4D6F757365EA
:100420005F6B6579730A000A092D204D6F7573653E
:100430006B6579202D0A4553432F713A097175690F
:10044000740A313A0964656C6179282A31306D7318
:10045000290A323A09696E74657276616C286D7387
:10046000290A333A096D61785F73706565640A34EF
:100470003A0974696D655F746F5F6D61780A353A2A
:1004800009776865656C5F6D61785F737065656439
:100490000A363A09776865656C5F74696D655F74E3
:1004A0006F5F6D61780A0A703A097072696E742024
:1004B00076616C7565730A643A09736574206465C6
:1004C0006661756C74730A75703A092B310A646F32
:1004D000776E3A092D310A706775703A092B313001
:1004E0000A7067646F776E3A092D31300A0A7370AB
:1004F000656564203D2064656C7461202A206D610F
:10050000785F7370656564202A2028726570656164
:1005100074202F2074696D655F746F5F6D61782939
:100520000A003F004D3E2000433E20004C25640A57
:100530000074696D65725F72656164333228293AAF
:10054000202530346C580A006B6579626F617264E3
:100550005F69646C653A2025580A006B6579626FA3
:100560006172645F70726F746F636F6C3A202558AC
:100570000A00686F73745F6B6579626F6172645FA4
:100580006C65647328293A2025580A000A092D2031
:10059000537461747573202D0A004743433A203425
:1005A0002E392E32204156522D4C4942433A2031A9
:1005B0002E382E3073766E204156525F415243489A
:1005C0003A20617672350A004F5054494F4E533AE3
:1005D000204C554641204D4F5553454B45592045DC
:1005E000585452414B455920434F4E534F4C452090
:1005F000434F4D4D414E4420343039360A00425568
:10060000494C443A2022302E362E3132392D3132A7
:100610002D676331663965632D64697274792220B0
:100620002832333A30313A3137204F637420203347
:100630002032303138290A005649443A2030784671
:100640004545442874616B61736869736B6929203F
:100650005049443A20307830303030286E616D6532
:100660006361726432783429205645523A203078DA
:10067000303030310A00444553433A2041206375FD
:1006800073746F6D206B6579626F6172640A000A22
:10069000092D2056657273696F6E202D0A000A09B4
:1006A0002D20436F6E736F6C65202D0A4553432FC9
:1006B000713A09717569740A6D3A096D6F757365E0
:1006C0006B65790A000A092D204D61676963202D49
:1006D0000A443A094465627567204D657373616722
:1006E0006520546F67676C650A583A094D617472EA
:1006F0006978204465627567204D6F646520546F8A
:1007000067676C65202D2053686F77206B65797063
:1007100072657373657320696E206D617472697898
:1007200020677269640A4B3A094B6579626F61729E
:100730006420446562756720546F67676C65202D7F
:100740002053686F77206B657970726573732072C0
:1007500065706F72740A4D3A094465627567204D81
:100760006F75736520546F67676C650A563A095652
:10077000657273696F6E0A533A09537461747573C5
:100780000A433A09416374697661746520436F6E68
:10079000736F6C65204D6F64650A46312D463130AC
:1007A0003A0953776974636820746F204C617965E6
:1007B0007220302D392028463130203D204C302900
:1007C0000A302D393A0953776974636820746F20B1
:1007D0004C6179657220302D390A4553433A0953EB
:1007E000776974636820746F204C6179657220307A
:1007F0002028616C7465726E617465206B65792068
:1008000031290A47524156453A095377697463685A
:1008100020746F204C6179657220302028616C74DF
:1008200065726E617465206B65792032290A5041CA
:100830005553453A094A756D7020746F20426F6FA9
:10084000746C6F6164657220285265736574290A3F
:10085000003F000A6D6F7573653A206F66660A0087
:100860000A6D6F7573653A206F6E0A000A6B6579C1
:10087000626F6172643A206F66660A000A6B65797E
:10088000626F6172643A206F6E0A000A6D61747261
:1008900069783A206F66660A000A6D617472697839
:1008A0003A206F6E0A000A64656275673A206F66C7
:1008B000660A000A64656275673A206F6E0A000A6C
:1008C0000A4A756D70696E6720746F20626F6F746D
:1008D0006C6F616465722E2E2E2000433E20005BFB
:1008E000735D004B6579626F61726420737461722D
:1008F000742E0A005B575D005B535D005B525D0028
:100900005B445D005B435D0004033000000018039E
:100910006E0061006D00650063006100720064009C
:1009200032007800340000001603740061006B0090
:10093000610073006800690073006B0069000000CB
:100940000403090409027400040100A0FA09040068
:1009500000010301010009211101000122400007EB
:1009600005810308000A09040100010301020009CE
:100970002111010001224D000705820308000A0928
:1009800004020001030000000921110100012236C8
:10099000000705830308000A09040300020300009E
:1009A0000009211101000122220007058403200013
:1009B00001070504032000011201100100000008D6
:1009C000EDFE00000100010203010631FF0974A1E0
:1009D000010975150026FF0095207508810209762A
:1009E000150026FF00952075089102C005010980B9
:1009F000A10185021601002603001A81002A830046
:100A0000751095018100C0050C0901A1018503162F
:100A10000100269C021A01002A9C02751095018192
:100A200000C005010902A1010901A1000509190180
:100A300029051500250195057501810295017503AC
:100A400081010501093009311581257F950275085D
:100A5000810609381581257F950175088106050CE9
:100A60000A38021581257F950175088106C0C005E9
:100A7000010906A101050719E029E71500250195DF
:100A80000875018102950175088101050819012980
:100A900005950575019102950175039101050719E9
:100AA0000029FF150026FF00950675088100C0008B
:100AB00011241FBECFEFDAE0DEBFCDBF04B603FEC8
:100AC00027C08091D4019091D501A091D601B09119
:100AD000D7018730904BA740B04BD1F41092D4018E
:100AE0001092D5011092D6011092D70114BE84B78E
:100AF000877F84BF0FB6F894A895809160008861C5
:100B000080936000109260000FBEE0E0F8E309956A
:100B100011E0A0E0B1E0EEEEFFE402C005900D921E
:100B2000A833B107D9F721E0A8E3B1E001C01D92D5
:100B3000A43DB207E1F70E9415220C94F5270C940E
:100B40000000FF93EF93E0913801F0913901309765
:100B500009F00995EF91FF910895FC01859180308E
:100B600011F0EFDFFBCF0895FF27E0E230E247FF0F
:100B70000CC0419597FF09C0EDE260957095809596
:100B80009095611D711D811D911D27FF02C021954A
:100B900030E350E2AA27660F771F881F991FAA1F0C
:100BA000A41710F0A41B63955A95A9F7AA3008F072
:100BB000A95FA05DAF93F39561157105810591055E
:100BC00041F7ED3211F4EF93F395F21718F43F93D8
:100BD000F395FBCF8F91B5DFFA95E1F70895E99191
:100BE000F9918591803021F0853219F0AADFF9CF93
:100BF000089520E0E89455915532C1F3503311F433
:100C0000689455915A3348F4505390F3220F022EB2
:100C1000220F220F200D250FF4CF0EF4219589917C
:100C20009991533619F3533729F1533559F1BC01D2
:100C300088279927E8945C3621F4899199916894E2
:100C40005591543639F446EF7EF077FF0DC08FEFA3
:100C50009FEF0AC055374AE039F0583540E121F09E
:100C6000523642E009F00895FF93EF937DDFEF9154
:100C7000FF91B7CFFF93EF93FC0181918030B9F3DF
:100C800060DFFBCFFF93EF9368DFF1CFDF93CF936C
:100C9000CDB7DEB72596A3DFCF91DF9108950C94F1
:100CA00057060C9458060C9459060C945B0608954C
:100CB000089581E00895089581E008950C944F0609
:100CC0000C9451060C94550608950E9442110E94FE
:100CD00064062FEF84E39CE0215080409040E1F7D0
:100CE00000C000000C94FD18FF920F931F93CF9348
:100CF000DF938C01FC01C081D18180915101811170
:100D000013C08281882349F0CE010E947016F82E0C
:100D1000682FCE010E94171604C0CE010E9445160E
:100D2000F82EBE018F2D04C0CE010E947016BE01A8
:100D30000E94EB07EC01B8010E945306882309F4D6
:100D40003FC1C631FCE5DF0709F406C178F4C130C4
:100D5000ECE5DE0759F120F4C115DC45F9F023C1BB
:100D6000C531ECE5DE0708F440C01DC1C83DFCE517
:100D7000DF0709F4D6C050F4C63DECE5DE0709F400
:100D800086C0C73DDC4509F4A5C00DC1CB3D8CE54F
:100D9000D807D9F0CC3DDC45F9F005C1F8018281D6
:100DA000882309F40DC10E9465060AC1F8018281F9
:100DB000882309F405C18091A40181608093A40176
:100DC0008AE791E00E94AD05FBC0F801828188238B
:100DD00009F4F6C080E006C0F8018281882309F496
:100DE000EFC082E00E94BD22EBC0F801828188231F
:100DF00009F4DEC00E94B217811102C00E94981748
:100E00000E94C51790E09093C6018093C501FE0132
:100E1000E350FC45E231F10530F4EA5AFF4F80918E
:100E2000C5010C94A5278091C501816027C082600F
:100E300025C0846023C0806121C080621FC080649F
:100E40001DC080681BC08460886018C08E7F16C07B
:100E50008D7F14C08B7F12C08F7E10C08F7D0EC01F
:100E60008F7B0CC08F770AC08B7F877F07C087FB83
:100E7000222720F991E0922790FB87F98093C50102
:100E80008091C5010E94C9170E94421199C0F801C2
:100E90008281882351F010923F010E94951890930F
:100EA0003C0180933B0182E022C080913F0181118F
:100EB0000FC080913B0190913C010E94AD18883C8D
:100EC000910530F486E20E94040D86E20E941B0E1A
:100ED00082E024C0F8018281882361F010924001F1
:100EE0000E94951890933E0180933D0180E20E94FC
:100EF000810E66C08091400181110FC080913D013B
:100F000090913E010E94AD18883C910530F487E233
:100F10000E94040D87E20E941B0E80E20E94880E50
:100F20004FC0F80182818111D9CF80914001811198
:100F3000F4CF80913D0190913E010E94AD18883C14
:100F4000910558F780E20E94880E88E20E94040D05
:100F500088E20E941B0E34C00E944117282FF8011E
:100F600082814091000150910101882379F02A7A11
:100F700091E009F490E090933A01911102C069E286
:100F800001C065E3CA010E9401180AC080913A01BC
:100F9000811102C069E201C065E3CA010E94031821
:100FA0000E940E170DC081E080933F0180934001A5
:100FB000C801DF91CF911F910F91FF900C945C06B7
:100FC00080E0DF91CF911F910F91FF90089580E015
:100FD00090E008950895E72FF0E0E80FF11DE80F85
:100FE000F11DEE0FFF1FEE0FFF1FE60FF11DEE0FBD
:100FF000FF1FE65BFE4F859194910895880F991F1E
:10100000FC01E557FE4F859194910895CF93DF93AE
:101010000E94EB070E94A909EC01811520E59207C7
:10102000F0F5811530E4930708F018C1883E91056A
:1010300000F5803E910508F088C1883A910570F46A
:10104000853A910508F09AC08130910509F47DC177
:1010500008F434C1049708F078C130C18D3B910584
:1010600008F497C0803C910508F428C1805C910980
:10107000E7C08115904258F4C11581E0D80708F007
:1010800064C1C03FD10508F419C1D0655EC1C11566
:1010900090E3D90708F0D8C0CE019F70D1C0811568
:1010A00025E5920708F043C0811534E5930708F061
:1010B000ECC0811542E5940708F5C11581E5D80714
:1010C00008F0CFC02C2F237081E090E002C0880F81
:1010D000991F2A95E2F79C689E0174E03695279542
:1010E0007A95E1F72370922BCF70C695C69530E2C2
:1010F000C39FE0011124C82BD92B27C18695869563
:101100009E0123703327C115D34508F0AFC040E2DC
:10111000849FC0011124C1E0D0E002C0CC0FDD1FCC
:101120002A95E2F78C2B9D2BEC01DC680EC1811512
:1011300029E5920778F4811538E5930708F0AAC0ED
:101140008115964508F0BAC0CF71DD27DC2FCC277A
:10115000D062FBC0C1158AE5D80708F4A0C0CE0153
:1011600090568115904208F0A9C08D2F8F710E9472
:10117000260ADD27D0628F71D82BE7C0853A91050A
:1011800009F49FC0863A910509F09EC0C2E8D0E4F8
:10119000DCC0883A910509F49AC0893A910509F4AE
:1011A00099C08A3A910509F498C08B3A910509F4DF
:1011B00097C08C3A910509F496C08B3B910509F4D0
:1011C00095C08C3B910509F494C08D3A910509F4C2
:1011D00093C0803B910509F492C08E3A910509F4C1
:1011E00091C08F3A910509F490C0813B910509F4B3
:1011F0008FC0823B910509F48EC0833B910509F4B1
:101200008DC0843B910509F48CC0853B910509F4A0
:101210008BC0863B910509F48AC0873B910509F490
:1012200089C0883B910509F488C0893B910509F480
:1012300087C08A3B910509F486C0C0E0D4E485C02C
:101240000E94FE07EC0181C0CE019927D3FF03C0A5
:10125000EC01D86C7AC0EC01D06C77C0DF70D06A3A
:1012600074C0DC2FCC27C16FD06A6FC040E2849F6E
:10127000C0011124C1E0D0E002C0CC0FDD1F2A95CF
:10128000E2F7C82BD92BDA6860C0D82FCC27C46FFF
:10129000D06A5BC0D82FCC27C06FD06A56C08C2FC5
:1012A0008F70806E90E0906A24E0D695C7952A955D
:1012B000E1F7CF709C013C2BE90147C0C0E0D0E0D2
:1012C00044C0C1E8D0E441C0C3E8D0E43EC0C2EEAF
:1012D000D4E43BC0C9EED4E438C0CAEED4E435C08F
:1012E000C5EBD4E432C0C6EBD4E42FC0C3EBD4E4E6
:1012F0002CC0C4EBD4E429C0C7EBD4E426C0CCECAA
:10130000D4E423C0CDECD4E420C0C3E8D5E41DC0B0
:10131000CAE8D5E41AC0C2E9D5E417C0C4E9D5E4E7
:1013200014C0C1E2D6E411C0C3E2D6E40EC0C4E2E8
:10133000D6E40BC0C5E2D6E408C0C6E2D6E405C0D8
:10134000C7E2D6E402C0CAE2D6E4CE01DF91CF9173
:1013500008958238910549F1B0F48133910509F47B
:1013600058C048F48932910509F44EC08A3291057B
:1013700009F454C008958533910509F440C08933B8
:10138000910599F00895833E910529F138F4803E46
:10139000910591F0823E9105A1F00895863E910558
:1013A000F9F0873E910531F108952091C50120FDA6
:1013B0003AC021FD38C008958091C50180FD35C037
:1013C00032C08091C50182FF32C08091C50184FD89
:1013D00030C083EE39C08091C50182FD28C0F5CFB1
:1013E0008091C50183FF27C08091C50184FD21C084
:1013F00087EE2AC08091C50183FD1DC0F5CF809185
:10140000C50185FD1AC01BC08091C50185FD17C0AF
:1014100014C08091C50186FD14C015C08091C5011E
:1014200086FD11C00EC080EE0FC089E30DC082EEB4
:101430000BC080E009C086EE07C089E205C085E3E5
:1014400003C08AE201C081E390E008959091C50154
:1014500092FF0DC0282F2871283019F4877F8460EF
:1014600006C0282F2471243011F48B7F886093FFED
:101470000DC0282F2871283119F4877E846106C099
:10148000282F2471243111F48B7E886194FD877E8E
:10149000089524982598A3E1B1E041E050E024E0CC
:1014A0002A0F8D91E82FE295EF70F0E031A18F7057
:1014B000BA0102C0660F771F8A95E2F7CB01962F1B
:1014C0009095932391A392A1892B82A32A13E9CF0C
:1014D0001092430110924101109244011092420176
:1014E0000C945E064F925F927F928F929F92AF9282
:1014F000BF92CF92DF92EF92FF920F931F93CF9301
:10150000DF9327E1E22E21E0F22EC1E4D1E001E0F9
:1015100010E0AA24A394BC2EB394B3946E019880D7
:101520001882D7018D917D01E82FE295EF70F0E0F0
:1015300021A18F70A80102C0440F551F8A95E2F7C0
:10154000CA01242B21A332A1242F2095322332A3B8
:1015500050EA5A95F1F793E1492E91E0592E40E077
:1015600050E0D2013D912D01632F62956F7070E0C4
:10157000DB0190967C9088803F70B80101C0660FB7
:101580003A95EAF7672139F4302F042E01C0330F62
:101590000A94EAF701C030E0382938834F5F5F4F83
:1015A00044305105F1F691A1292321A392A1892B61
:1015B00082A32196F6018081981641F0A092450100
:1015C0000E9495189093470180934601BC12A6CFC4
:1015D00080914501882391F08091460190914701C7
:1015E0000E94AD18069750F080914101809343010D
:1015F0008091420180934401109245010E9460064F
:1016000081E0DF91CF911F910F91FF90EF90DF90DC
:10161000CF90BF90AF909F908F907F905F904F90B2
:101620000895E82FF0E0ED5BFE4F80810895CF92A2
:10163000DF92EF92FF920F931F93CF93DF938AE98C
:1016400091E00E94AD0583E4E82E81E0F82EC0E031
:10165000D0E095E9C92E91E0D92E0DE811E0DF9395
:10166000CF93DF92CF920E94460682E991E00E94DA
:10167000AD05F70181917F010E9482171F928F9320
:101680001F930F930E9446068BE891E00E94AD05E0
:101690008DB79EB708960FB6F8949EBF0FBE8DBF4C
:1016A000219719F0C1E0D0E0DACFDF91CF911F91FF
:1016B0000F91FF90EF90DF90CF90089590934D01A0
:1016C00080934C010895E0914C01F0914D013097C9
:1016D00021F00190F081E02D099480E00895EF92CF
:1016E000FF920F931F93CF93DF93E0914C01F09102
:1016F0004D013097B1F18C010280F381E02D099505
:101700008091A40182FF2DC080FF04C081EB91E095
:101710000E94AD05E80118E08BEAE82E81E0F82E82
:101720008091A40180FF0BC088811F928F93FF924C
:10173000EF920E9446060F900F900F900F9011505D
:1017400021961111EDCF8091A40180FF0AC089EA92
:1017500091E0DF91CF911F910F91FF90EF900C944A
:10176000AD05DF91CF911F910F91FF90EF900895FC
:10177000E0914C01F0914D01309721F00480F5810A
:10178000E02D0994089520914A0130914B01821770
:10179000930771F090934B0180934A01E0914C01C3
:1017A000F0914D01309721F00680F781E02D0994EA
:1017B000089520914801309149018217930771F0F3
:1017C0009093490180934801E0914C01F0914D01C3
:1017D000309721F00084F185E02D09940895089553
:1017E0000C94EF0B81E008950E948C1885B78068F7
:1017F00085BF85B7806885BF0E94490A0C9421196E
:10180000CF93C82F8091A40182FF1EC080FF04C027
:101810008AEC91E00E94AD058091A40180FF0CC08C
:101820001F92CF9385EC91E09F938F930E94460681
:101830000F900F900F900F908091A40180FF04C033
:1018400083EC91E00E94AD058C2FCF910C94620641
:10185000CF92DF92EF92FF920F931F93CF93DF937C
:10186000CDB7DEB72B970FB6F894DEBF0FBECDBF56
:101870000E94720A0E94F20B811111C08FEF8983BE
:101880008A831B820E9495188160782F9D838C83A8
:1018900049815A816B818D810E94D00C56C08FE4A2
:1018A000C82E81E0D82E00E010E0E02E802F0E94AC
:1018B000110BF60141916F01F42EF82631F401303D
:1018C0001105E1F201E010E0F0CF9091A40191FF49
:1018D00004C08B870E94170B8B8520E030E04F2DD2
:1018E00050E0922FBA01022E02C0759567950A94B6
:1018F000E2F760FF24C02E83EF8221E030E069012F
:1019000002C0CC0CDD1C9A95E2F790E08C219D2161
:10191000892B09F420E028870E9495188160782F90
:101920009A8789874E815F8168858A850E94D00C5D
:10193000F801E15BFE4F8081C826C08206C02F5FA0
:101940003F4F2430310569F6BACF0E94361B109103
:101950004E010E94630B1817A1F00E94630B809345
:101960004E012B960FB6F894DEBF0FBECDBFDF91B0
:10197000CF911F910F91FF90EF90DF90CF900C943B
:10198000000C2B960FB6F894DEBF0FBECDBFDF91D3
:10199000CF911F910F91FF90EF90DF90CF9008951E
:1019A000CF93DF93CDB7DEB72B970FB6F894DEBF9A
:1019B0000FBECDBF4F83588769877A878B87DE013B
:1019C000119686E0FD0111928A95E9F785E0FE0106
:1019D000379601900D928A95E1F749815A816B8182
:1019E0007C818D819E810E94E9132B960FB6F8941D
:1019F000DEBF0FBECDBFDF91CF910895FC01808186
:101A000091810E94AF160895CF93DF931F92CDB7B7
:101A1000DEB7882309F40BC1682F8238C1F40E9415
:101A2000630B81FD04C169E3809100019091010184
:101A30000E9401180E940E172FEF81EE94E02150B2
:101A400080409040E1F700C0000069E319C083388E
:101A500011F50E94630B80FDEAC063E580910001EF
:101A6000909101010E9401180E940E172FEF81EE44
:101A700094E0215080409040E1F700C0000063E511
:101A800080910001909101010E9403180F90DF9155
:101A9000CF910C940E178438C1F40E94630B82FD21
:101AA000C6C067E480910001909101010E94011875
:101AB0000E940E172FEF81EE94E02150804090405D
:101AC000E1F700C0000067E4DBCF8CEF860F813ABE
:101AD00070F4862F69830E94631E69818111A7C0FB
:101AE00080910001909101010E940118CFCF80E206
:101AF000860F883048F4677081E001C0880F6A95CE
:101B0000EAF70E944417C2CF8BE5860F833088F432
:101B1000653A29F0663A31F083E890E005C081E843
:101B200090E002C082E890E00F90DF91CF910C949A
:101B3000C30B88E5860F853108F071C0683A61F102
:101B4000693A69F16A3A71F16B3A79F16C3A81F16B
:101B50006B3B89F16C3B91F16D3A99F1603BA1F1DE
:101B60006E3AA9F16F3AB1F1613BB9F1623BC1F153
:101B7000633BC9F1643BD1F1653BD9F1663BE1F1CF
:101B8000673BE9F1683BF1F1693BF9F16A3B09F424
:101B90003FC080E090E03EC082EE90E03BC089EE26
:101BA00090E038C08AEE90E035C085EB90E032C01E
:101BB00086EB90E02FC083EB90E02CC084EB90E0AC
:101BC00029C087EB90E026C08CEC90E023C08DEC20
:101BD00090E020C083E891E01DC08AE891E01AC03F
:101BE00082E991E017C084E991E014C081E292E0BB
:101BF00011C083E292E00EC084E292E00BC085E265
:101C000092E008C086E292E005C087E292E002C05E
:101C10008AE292E00F90DF91CF910C94D90B603F54
:101C200030F0862F0F90DF91CF910C94BC190F905C
:101C3000DF91CF910895882309F462C0823879F446
:101C40000E94630B81FF5CC069E380910001909169
:101C500001010E9401180E940E1769E310C0833829
:101C6000B1F40E94630B80FF4BC063E580910001DB
:101C7000909101010E9401180E940E1763E5809166
:101C80000001909101010E9403180C940E178438F2
:101C900079F40E94630B82FF33C067E480910001F6
:101CA000909101010E9401180E940E1767E4E7CF8E
:101CB0009CEF980F913A10F4682FE1CF90E2980FC3
:101CC000983050F4877091E001C0990F8A95EAF737
:101CD000892F0E944A17D9CF9BE5980F933020F4A3
:101CE00080E090E00C94C30B98E5980F953120F4B8
:101CF00080E090E00C94D90B803F10F00C94241AF3
:101D00000895882321F00E9444170C940E1708951B
:101D1000882321F00E944A170C940E1708954F92C1
:101D20005F926F927F92BF92CF92DF92EF92FF927B
:101D30000F931F93CF93DF937C01D62FC72FFC0106
:101D4000058102950F70128111110E9461170E9486
:101D50000717882379F0112369F080E28D0F88300E
:101D600048F082E00E94F0160E94071791E0B82E1A
:101D7000B92601C0B12CCC2EC2948FE0C822D12C40
:101D8000F601E859FF4F0C94A5278C2F807FCF7068
:101D9000882311F0C295C07F112399F0CC2309F458
:101DA000CFC180E28D0F883010F0D11104C08C2F8C
:101DB0000E94441703C08C2F0E9454170E940E17D4
:101DC000BFC18D2F0E941B0ECC2309F4DEC180E21F
:101DD0008D0F883010F0D11104C08C2F0E944A174B
:101DE00003C08C2F0E945A170E940E17CEC18C2F51
:101DF000807FCF70803211F0C295C07FDD2319F053
:101E0000D130C9F022C0112371F0002341F001301C
:101E100031F40E947A178C2B0E947417B6C10E946D
:101E20007A178C2B46C1002319F0013009F4ADC19B
:101E30000E94771718C0112321F0063008F0A5C1C1
:101E40000EC0053008F0A1C10EC0112351F00023CF
:101E500031F0F701858180FF73C18F7085838C2FEE
:101E600028C101117EC18C2F2AC18C2F86958695A1
:101E7000837090E0009719F0019761F086C11123FB
:101E800021F08D2F9C2F937002C080E090E00E9483
:101E9000C30B8BC1112321F08D2F9C2F937002C097
:101EA00080E090E00E94D90B80C11123F9F0D53F6A
:101EB00051F0D63F71F0D43FA9F48091BF019091C9
:101EC000C00181600BC08091BF019091C001826010
:101ED00005C08091BF019091C00184609093C001C2
:101EE0008093BF018D2F0E94BC191EC0D53F51F0B9
:101EF000D63F71F0D43FA9F48091BF019091C00109
:101F00008E7F0BC08091BF019091C0018D7F05C075
:101F10008091BF019091C0018B7F9093C00180930D
:101F2000BF018D2F0E94241A0E94A91A3EC18C2F36
:101F3000837009F050C0111134C18D2F82958695A0
:101F40008770880F880F9D2F9F70492E512C612C10
:101F5000712C082E04C0440C551C661C771C0A9476
:101F6000D2F7D4FF14C00FE010E020E030E0B90158
:101F7000A80104C0440F551F661F771F8A95D2F72A
:101F8000CB01BA01609570958095909503C060E093
:101F900070E0CB01C695C695C370D0E0C230D105C4
:101FA00061F0C330D10581F064297529862997290C
:101FB000219771F00E942C15F4C064297529862997
:101FC00097290E943E15EDC00E942C15C301B20155
:101FD0000E941A15E6C0112319F08C2F817001C0E0
:101FE0008695882309F4DDC08D2F829586958770AC
:101FF000880F880F9D2F9F70492E512C612C712CBA
:10200000082E04C0440C551C661C771C0A94D2F799
:10201000D4FF14C00FE010E020E030E0B901A801C7
:1020200004C0440F551F661F771F8A95D2F7CB0156
:10203000BA01609570958095909503C060E070E05E
:10204000CB01C695C695C3704C2F50E04230510568
:1020500069F04330510589F064297529862997294B
:102060004130510571F00E94F2159BC06429752919
:10207000862997290E94041694C00E94F215C30174
:10208000B2010E94E0158DC08D2F90E0FC01E05E52
:10209000F109E531F10508F04FC0E858FF4F0C9405
:1020A000A527DF708C2F8F71112331F00E947915D5
:1020B0008D2F0E94810E69C00E949A158D2F0E945B
:1020C000880E63C0112341F0053008F05EC08C2FEC
:1020D0008F710E94BF1559C0063008F056C0F7CF67
:1020E000112339F08C2F8F710E9479154EC0112366
:1020F000C9F38C2F8F710E949A1547C0112329F0C4
:102100008C2F8F710E94641540C00E945F153DC0E6
:10211000112349F0CF718C2F0E94791563E08C2F29
:102120000E94E71632C081E00E94F016023068F18A
:1021300082E00E94F01629C0112331F0002391F2B1
:102140008D2F0E94040D21C0002399F2D93349F448
:102150005FEF67EE73E0515060407040E1F700C000
:1021600000008D2F0E941B0E10C04C2F4F706D2F42
:10217000C7010E94E7070E948D1417C04C2F4F70B3
:102180006D2FC7010E94EA0710C088E0C816D1046D
:1021900041F05CF0EAE0CE1AD108F2E0CF16D104AB
:1021A00020F40E94630B0E946206BB20F1F00E94A3
:1021B000E31680FD1AC0F70112820E94DD160E940C
:1021C0007915C7010E9403110E94DD16DF91CF919E
:1021D0001F910F91FF90EF90DF90CF90BF907F9075
:1021E0006F905F904F900C949A15DF91CF911F9153
:1021F0000F91FF90EF90DF90CF90BF907F906F9006
:102200005F904F9008950F931F93CF93DF93EC014E
:10221000888199812B813C81232BB9F09F3F11F458
:102220008F3F99F0CE010E947406882371F0688177
:1022300079818A810E94BA168C010E9416160E942A
:102240001715B801CE010E948F0EDF91CF911F911B
:102250000F9108950E9461170E94711780910001EB
:10226000909101010E9405180E940E170E94D11B37
:102270000E94A91A80E090E00E94C30B80E090E0E9
:102280000C94D90B0E9451170C942A110E94AF167E
:10229000E92FE295EF70F0E03297EE30F105B0F4FF
:1022A000E357FF4F0C94A527803F91F018F4803E30
:1022B00068F40EC0843F51F40BC0803E48F0813F6B
:1022C00029F406C093FB882780F9089580E00895DB
:1022D00081E00895CF93DF9300D000D01F92CDB757
:1022E000DEB70F900F900F900F900F90DF91CF916E
:1022F0000895CF93DF9300D000D000D0CDB7DEB7E4
:1023000026960FB6F894DEBF0FBECDBFDF91CF91FA
:1023100008951F93CF93DF93C091520116E08091EF
:102320005301C81799F0D0E01C9FF0011D9FF00DDC
:102330001124EC5AFE4F4081518162817381848166
:1023400095810E9479112196C770E9CFDF91CF91D5
:102350001F910895409184015091850160918601FB
:102360007091870180918801909189010C94791175
:102370008091890182958F7009F054C08091860107
:10238000882309F44FC080915201A09153016091BC
:102390008401709185014091870150918801B6E0D8
:1023A0008A1709F43FC090E041155105C1F17F3F04
:1023B00011F46F3FA1F1B89FF001B99FF00D112406
:1023C000EC5AFE4F218172132AC02081621327C06C
:1023D0002281211124C0238134812417350710F470
:1023E00021503109241B350B283C3105C0F42091C4
:1023F00089012F7020612093890126E0289FF00138
:10240000299FF00D1124E75AFE4F80818F70806163
:10241000808384E891E00E9403110C948911019655
:102420008770BECF0895CF92DF92EF92FF920F9305
:102430001F93CF93DF93CDB7DEB762970FB6F894B3
:10244000DEBF0FBECDBF8C0185E0F801DE011D9619
:1024500001900D928A95E1F7D8014C9111965C910B
:10246000119712966C9112971396CD90DC90149759
:10247000309184017091850180918701909188014C
:10248000009709F46BC17F3F19F43F3F09F466C11F
:10249000E0908601EE2009F4C0C020918901C816A1
:1024A000D90628F0F601E81BF90BCF0104C080958E
:1024B00090958C0D9D1DFF24F394883C910578F038
:1024C000F12C207F09F0C6C07C2DD98AC88A898961
:1024D0000E946A1184E891E00E940311B1C0822F2A
:1024E000807F09F046C0751314C0341312C0611107
:1024F00010C02F702061209389010E94AA1184E8E6
:1025000091E00E94031180918901D80115968C9366
:102510002EC0CD2819F15F3F11F44F3FF9F0F62E90
:1025200061111CC0809152012091530136E0821745
:1025300009F45AC090E0389FF001399FF00D112442
:10254000EC5AFE4F7181571306C07081471303C0C8
:102550007281711103C001968770E9CFF62E662350
:1025600009F427C180918901816080938901F12C50
:1025700020C1751308C0341306C0611104C08091D6
:102580008901D801C3C04D875E878D859E856A8B82
:102590000E9446116A898823E1F16623D1F12091D6
:1025A0008901822F82958F7090E0029774F080915C
:1025B00084019091850198878F831986DB86CA866E
:1025C0002C87CE0107960E94031186E0F801A4E84B
:1025D000B1E001900D928A95E1F70E94B8110E9436
:1025E000AA11FF24F394E5C04D875E878D859E85F3
:1025F0000E94AF16292F22952F7030E0223031052E
:102600000CF0CBC09F7009F0C5C0805E883008F424
:10261000D0C0C8010E940311E4CFC816D90608F43F
:1026200053C0F601E81BF90BCF01883C910508F473
:1026300050C0F12C7C2DD98AC88A89890E946A11E0
:10264000E4E8F1E086E0DF011D928A95E9F70E9457
:10265000AA11AFC0751314C0341312C0611110C099
:1026600080918901F8018583C8010E94031186E0E9
:10267000E4E8F1E0DF011D928A95E9F7FE2C99C0AC
:102680004D875E878D859E856A8B0E9446116A897B
:10269000882309F4BECF662309F4BBCF20918901BA
:1026A000822F82958F7090E002970CF48ECF8091EC
:1026B0008401909185019A8389831B82DD82CC827B
:1026C0002E83CE0101967FCF809590958C0D9D1D18
:1026D000ACCFF62E662309F49CCF75132EC03413AD
:1026E0002CC02091890120FD1FC0822F82958F7000
:1026F000D9F0D80115962C9315978F3049F08F5F3C
:10270000982F9295907F822F8F70892B15968C939E
:10271000C8010E94031186E0F801A4E8B1E001902D
:102720000D928A95E1F793CF86E0F801A4E8B1E035
:1027300001900D928A95E1F73CC04D875E878D85AB
:102740009E850E944611811140CF80918901816050
:1027500080938901C8010E9403112BC0662309F4EC
:1027600058CF4D875E878D859E850E944611F82E35
:10277000882309F44ECF86E0F801A4E8B1E0019087
:102780000D928A95E1F784E891E00E94FE0C0E9488
:10279000B8115DCF811139CF0CC0243031050CF058
:1027A00038CF9F7009F431CFF8019581907F09F0FF
:1027B0002CCF8F2D62960FB6F894DEBF0FBECDBF23
:1027C000DF91CF911F910F91FF90EF90DF90CF900D
:1027D00008951F93CF93DF93CDB7DEB72C970FB635
:1027E000F894DEBF0FBECDBF4F83588769877A87C5
:1027F0008B879C87CE0107960E941312882369F06D
:102800008F8198852A853B85232BF1F19F3F09F025
:1028100063C08F3F09F060C037C086E0FE01379685
:10282000DE01119601900D928A95E1F76F8178850E
:10283000EA85FB85309741F17F3F11F46F3F21F12D
:102840002091530130E0C90101968770992740918A
:10285000520150E08417950709F447C069837A83D1
:10286000FD83EC8396E0929FD001939FB00D1124DD
:10287000AC5ABE4FFE01319601900D929A95E1F748
:10288000809353010E94891116E08091520190912A
:1028900053018917C1F1189FC00111248C5A9E4F12
:1028A0000E941312882379F1E09152011E9FF001DA
:1028B0001124EC5AFE4F40815181628173818481E1
:1028C00095810E9479118091520190E00196877064
:1028D000992780935201D9CF4F81588569857A8590
:1028E0008B859C850E947911CFCF0E944211109256
:1028F000530110925201E4E8F1E086E0DF011D92FD
:102900008A95E9F7C1CF2C960FB6F894DEBF0FBEBB
:10291000CDBFDF91CF911F910895EF92FF920F935A
:102920001F93CF93DF938C01892B09F46CC0F12C9A
:10293000EE24E394E8012196F8018491843740F471
:10294000843008F051C0813081F0823019F15BC0D1
:10295000853709F444C0A8F19CE7980F903708F038
:1029600052C08F770E941B0E41C00E5F1F4FFE01A9
:10297000C49180E28C0F883048F4C7708E2D01C05E
:10298000880FCA95EAF70E94641714C08C2F0E9422
:10299000040D2DC00E5F1F4FFE01C49180E28C0F0D
:1029A000883058F4C7708E2D01C0880FCA95EAF799
:1029B0000E946A170E940E171AC08C2F0E941B0ECD
:1029C00016C00E5F1F4FFE01C491CC2381F08FE92A
:1029D0009FE00197F1F700C00000C150F6CF0E5FF5
:1029E0001F4FFE01F49003C00E94040D8E018F2D35
:1029F000882309F49FCFEFE9FFE03197F1F700C09A
:102A000000008150F5CFDF91CF911F910F91FF9082
:102A1000EF90089508950E940A15609393017093B2
:102A2000940180939501909396010C942A11089536
:102A30000C940B150F931F93009193011091940127
:102A40002091950130919601602B712B822B932B55
:102A50001F910F910C940B150F931F9300919301ED
:102A6000109194012091950130919601602371237A
:102A7000822393231F910F910C940B150F931F9397
:102A8000009193011091940120919501309196014C
:102A900060277127822793271F910F910C940B15A4
:102AA00008950C9450150E94511560938F017093F6
:102AB000900180939101909392010C942A1160E00F
:102AC00070E0CB010C9453150F931F9341E050E03D
:102AD00060E070E08A019B0104C0000F111F221FFB
:102AE000331F8A95D2F7C901B8011F910F910C9439
:102AF00053150F931F9341E050E060E070E004C075
:102B0000440F551F661F771F8A95D2F780918F015A
:102B100090919001A0919101B09192018A019B0145
:102B2000082B192B2A2B3B2BC901B8011F910F91A0
:102B30000C9453150F931F9341E050E060E070E058
:102B400004C0440F551F661F771F8A95D2F7409522
:102B500050956095709580918F0190919001A09112
:102B60009101B09192018A019B01082319232A2324
:102B70003B23C901B8011F910F910C9453150F937A
:102B80001F9341E050E060E070E004C0440F551F27
:102B9000661F771F8A95D2F780918F0190919001DF
:102BA000A0919101B09192018A019B0108271927F8
:102BB0002A273B27C901B8011F910F910C94531587
:102BC0000F931F9300918F0110919001209191011B
:102BD00030919201602B712B822B932B1F910F91BF
:102BE0000C9453150F931F9300918F011091900136
:102BF00020919101309192016023712382239323CC
:102C00001F910F910C9453150F931F9300918F01F7
:102C100010919001209191013091920160277127CC
:102C2000822793271F910F910C9453150895990FA4
:102C3000990F890FA82FA695A695A695877051E0A4
:102C400001C0550F8A95EAF785E0A89FD0011124AD
:102C500020E030E070E0F901EA0FFB1FE657FE4F7D
:102C60004081CB01022E02C0969587950A94E2F727
:102C700081709927819584278523842780832F5FFE
:102C80003F4F2530310539F70895990F990F890F76
:102C9000682F669566956695982F977085E0689F72
:102CA000B001112440E050E080E0FA01E60FF71F88
:102CB000E657FE4F208130E0092E02C03695279559
:102CC0000A94E2F721703327042E01C0220F0A94E0
:102CD000EAF7822B4F5F5F4F4530510531F708957A
:102CE000CF92DF92EF92FF920F931F93CF93DF93D8
:102CF0008C01C0909301D0909401E0909501F090E8
:102D0000960180918F0190919001A0919101B091D5
:102D10009201C82AD92AEA2AFB2ACFE1D0E0D701BA
:102D2000C6010C2E04C0B695A795979587950A9471
:102D3000D2F780FF06C0B8018C2F0E9406080197C9
:102D400021F4219760F780E001C08C2FDF91CF91B3
:102D50001F910F91FF90EF90DF90CF900895CF9348
:102D6000DF93EC010E947016BE010E940608DF91FD
:102D7000CF9108951F93CF93DF93EB019091510171
:102D8000992321F0CB010E94AF1613C0882349F08C
:102D9000CB010E947016182F682FCE010E941716C3
:102DA00004C0CB010E944516182FBE01812F0E943E
:102DB0000608DF91CF911F91089580919701859525
:102DC000859585950895809197018770089598E07D
:102DD000899F90011124262B209397010C9479153B
:102DE000209197018095822380939701982F977067
:102DF00069F430E0482F082E000C550B24173507D6
:102E000029F08595859585950C949A15089590914E
:102E10009701977081E009F480E00895E091000146
:102E2000F09101018091A3018083E0910001F09174
:102E3000010190818091A201892B8083E0910001A2
:102E4000F091010190818091A101892B8083809173
:102E50009801882381F0E0910001F09101019081B7
:102E6000892B808380910001909101010E94CE17EF
:102E700081111092980180910001909101010C94B0
:102E80006F0B8091A30108959091A301892B8093EA
:102E9000A301089580959091A30189238093A301B4
:102EA00008951092A30108959091A201892B809317
:102EB000A201089580959091A20189238093A20197
:102EC00008951092A20108959091A101892B8093F9
:102ED000A101089580959091A10189238093A1017A
:102EE00008951092A1010895809398010895109279
:102EF00098010895809198010895909339018093E5
:102F0000380108958295982F9C7C392F36953695F7
:102F1000282F237344E0249FC0011124932F982B62
:102F2000292F2A7A2695892F8575880F822B089557
:102F30006DEE7EEF80E090E00E94DF2760E082E0AF
:102F400090E00E94CD2760E083E090E00E94CD27D2
:102F500060E084E090E00E94CD2760E085E090E0B2
:102F60000C94CD2780E090E00E94C72721E08D3EA1
:102F70009E4F09F020E0822F089582E090E00C94AB
:102F8000BF2783E090E00C94BF2784E090E00C948E
:102F9000BF27682F84E090E00C94CD27FC01319688
:102FA0009C01285F3F4F80E0919191118F5FE21764
:102FB000F307D1F708959C01FC0132969FEF80E062
:102FC0004191461789F09F3F19F4411101C0982F94
:102FD0008F5F8630A9F79F3F39F0F901E90FF11DA6
:102FE00097FDFA95628308950895FC01329608963C
:102FF0002081261301C010823196E817F907C1F726
:1030000008950C94DB170C94F517FC013196089683
:103010001192E817F907E1F7089508950C940D1837
:103020000E940E188091CB01843049F11092A501C5
:1030300020E488E190E00FB6F894A89580936000B2
:103040000FBE2093600080E00E9462060E940E186E
:1030500083B7817F846083BF83B7816083BF7894A7
:10306000889583B78E7F83BF0FB6F894A89580911B
:103070006000886180936000109260000FBE089528
:10308000089508950E9440180E94720A0E944118F3
:1030900080E00E94110B811108C081E00E94110B99
:1030A00091E0811103C090E001C091E0892F089563
:1030B00008950C9458180E9442110E94630B0E94BC
:1030C00062060C9459181F920F920FB60F9211249A
:1030D0008F939F93AF93BF938091A501811113C0EC
:1030E0008091C1019091C201A091C301B091C4012E
:1030F0004196A11DB11D8093C1019093C201A0937F
:10310000C301B093C401BF91AF919F918F910F9074
:103110000FBE0F901F90189582E084BD93E095BD7F
:103120009AEF97BD80936E0008952FB7F894809121
:10313000C1019091C201A091C301B091C4012FBF00
:1031400008952FB7F8946091C1017091C2018091E8
:10315000C3019091C4012FBF0895CF92DF92EF92E7
:10316000FF920F931F932FB7F8944091C101509194
:10317000C2016091C3017091C4012FBF6A017B013C
:10318000EE24FF248C0120E030E0C016D106E206D8
:10319000F30610F4415051099A01281B390BC9015B
:1031A0001F910F91FF90EF90DF90CF90089578944A
:1031B0001F920F920FB60F9211248F939F93AF938C
:1031C000BF938091C1019091C201A091C301B091C0
:1031D000C4010196A11DB11D8093C1019093C2014C
:1031E000A093C301B093C401BF91AF919F918F9100
:1031F0000F900FBE0F901F90189581E08093E00014
:1032000080E28093D8001092C9008FE19EE401977C
:10321000F1F700C0000087E090EBDC018093D4015F
:103220009093D501A093D601B093D7019CE088E19B
:103230000FB6F894A895809360000FBE909360003D
:10324000FFCF0E94B217811102C00E9498170E94FE
:10325000BD178093A4010E94C51790E09093C6010A
:103260008093C5010E94C117682F70E080E090E054
:103270000C9418158091A80180FF0BC06091050186
:1032800085E0689FB00111247595679575956795E0
:103290002BC081FF09C06091050185E0689FB001E6
:1032A00011247595679520C082FF07C060910501C4
:1032B00085E0689FB001112417C09091A90199235E
:1032C000D1F060910401961788F72091050185E0FF
:1032D000289F90011124929FA001939F500D1124CB
:1032E00070E0CA010E9491276038710540F46115B1
:1032F000710539F002C065E070E0862F08958FE710
:10330000089581E008958091A80180FF08C0609130
:10331000030170E0759567957595679521C081FFEC
:1033200006C06091030170E07595679519C082FF32
:1033300004C06091030170E010C09091A90199232D
:10334000C1F0609102019617A0F780910301899F57
:10335000C001112470E00E9491276038710528F4A3
:103360006115710521F0862F08958FE7089581E09A
:10337000089561E070E0F4CF803F21F40E943A1993
:10338000819504C0813F29F40E943A198093AC01D1
:103390000895823F21F40E943A19819504C0833F29
:1033A00029F40E943A198093AB010895893F19F4DA
:1033B0000E94831905C08A3F31F40E9483198195C8
:1033C0008093AD0108958B3F21F40E94831981956C
:1033D00004C08C3F29F40E9483198093AE010895A4
:1033E000843F21F48091AA01816017C0853F21F4B8
:1033F0008091AA01826011C0863F21F48091AA01C8
:1034000084600BC0873F21F48091AA01886005C0C9
:10341000883F31F48091AA0180618093AA010895C8
:103420008D3F21F48091A80181600BC08E3F21F473
:103430008091A801826005C08F3F29F48091A80186
:1034400084608093A8010895803F39F48091AC0195
:1034500087FF6CC01092AC0169C0813F29F4809154
:10346000AC011816BCF362C09091AB01823F29F405
:1034700097FF5CC01092AB0159C0833F19F4191635
:10348000CCF354C0893F41F48091AD0118160CF083
:103490004DC01092AD014AC08A3F29F48091AD0120
:1034A00087FF44C0F6CF8B3F39F48091AE0187FF90
:1034B0003DC01092AE013AC08C3F29F48091AE011C
:1034C0001816BCF333C0843F21F48091AA018E7F8B
:1034D00017C0853F21F48091AA018D7F11C0863FDE
:1034E00021F48091AA018B7F0BC0873F21F480914A
:1034F000AA01877F05C0883F31F48091AA018F7EA1
:103500008093AA0113C08D3F21F48091A8018E7F82
:103510000BC08E3F21F48091A8018D7F05C08F3FA5
:1035200029F48091A8018B7F8093A8018091AB0141
:1035300081110EC08091AC0181110AC08091AD0152
:10354000811106C08091AE01811102C01092A901C3
:1035500008958091A40183FF7EC084E092E00E94E0
:10356000AD058091AA011F928F938FEF91E09F93F9
:103570008F930E9446068DEF91E00E94AD058091E9
:10358000AB01282F082E000C330B3F938F938AEF4B
:1035900091E09F938F930E94460688EF91E00E94EE
:1035A000AD058091AC01282F082E000C330B3F9302
:1035B0008F9385EF91E09F938F930E94460683EF50
:1035C00091E00E94AD058091AD01282F082E000CDE
:1035D000330B3F938F9380EF91E09F938F930E94E3
:1035E00046068EEE91E00E94AD058091AE01282F37
:1035F000082E000C330B3F938F938BEE91E09F933B
:103600008F930E94460688EE91E00E94AD0580915E
:10361000A9011F928F9385EE91E09F938F930E9453
:10362000460683EE91E00E94AD058091A8011F92AD
:103630008F9380EE91E09F938F930E9446068DEDCD
:1036400091E00E94AD058DB79EB74C960FB6F894E9
:103650009EBF0FBE8DBF8AEA91E00E94B80B0E9408
:1036600095189093A7018093A60108951F93CF9377
:10367000DF938091A6019091A7010E94AD18AC0143
:103680009091A901992321F02091060130E006C014
:10369000209107018AE0289F9001112442175307C7
:1036A00008F47BC08091AB01C091AC01D091AD0119
:1036B0001091AE01811107C0C1116BC0D11169C059
:1036C000111167C06AC09F3F19F09F5F9093A901D5
:1036D000181624F40E943A198093AB018091AB0133
:1036E00087FF05C00E943A1981958093AB011C1693
:1036F00024F40E943A198093AC018091AC0187FFB9
:1037000005C00E943A1981958093AC013091AB01BC
:103710003323E1F02091AC012223C1F045EB3403C7
:10372000C0011124892F990F990B009709F481E0AA
:103730008093AB0135EB2303C0011124892F990F2E
:10374000990B009709F481E08093AC011D1624F4D5
:103750000E9483198093AD018091AD0187FF05C060
:103760000E94831981958093AD01111624F40E9463
:1037700083198093AE018091AE0187FF05C00E943E
:10378000831981958093AE01DF91CF911F910C94A5
:10379000A91A9F3F09F099CFA1CFDF91CF911F9137
:1037A0000895EAEAF1E085E0DF011D928A95E9F7E4
:1037B0001092A9011092A801089587E294E00E9456
:1037C000AD051F9281E08F931F9285E08F9389ED65
:1037D00093E09F938F930E9446060F900F900F9057
:1037E0000F900F900F9008958330E9F128F4813005
:1037F00061F0823009F10895853009F462C008F45F
:1038000049C0863009F474C0089580910701262FBD
:1038100030E0280F311D2F3F310524F4680F6093ED
:10382000070103C08FEF80930701809107011F926A
:103830008F9382E193E072C080910601262F30E0E1
:10384000280F311D2F3F310524F4680F60930601C6
:1038500003C08FEF80930601809106011F928F9322
:1038600080E093E05BC080910501262F30E0280FB7
:10387000311D2F3F310524F4680F6093050103C00B
:103880008FEF80930501809105011F928F938DEE3C
:1038900092E044C080910401262F30E0280F311DB2
:1038A0002F3F310524F4680F6093040103C08FEFAC
:1038B00080930401809104011F928F9388ED92E020
:1038C0002DC080910301262F30E0280F311D2F3F9E
:1038D000310524F4680F6093030103C08FEF8093D8
:1038E0000301809103011F928F938FEB92E016C02A
:1038F00080910201262F30E0280F311D2F3F310526
:1039000024F4680F6093020103C08FEF80930201DB
:10391000809102011F928F9384EA92E09F938F938C
:103920000E9446060F900F900F900F9008958330DD
:1039300081F128F4813059F08230D1F0089585303A
:1039400009F449C0B8F1863009F456C00895809151
:103950000701681720F4861B8093070102C01092AC
:103960000701809107011F928F9385E992E054C06F
:1039700080910601681720F4861B8093060102C01F
:1039800010920601809106011F928F9383E892E0C6
:1039900043C080910501681720F4861B80930501C0
:1039A00002C010920501809105011F928F9380E75C
:1039B00092E032C080910401681720F4861B809346
:1039C000040102C010920401809104011F928F93A0
:1039D0008BE592E021C080910301681720F4861BDB
:1039E0008093030102C010920301809103011F9292
:1039F0008F9382E492E010C080910201681720F456
:103A0000861B8093020102C0109202018091020184
:103A10001F928F9387E292E09F938F930E944606B6
:103A20000F900F900F900F900895CF93C82F1F9273
:103A30008F938CE295E09F938F930E94460681E0DE
:103A400090E0A0E0B0E0BC01CD0104C0660F771F9C
:103A5000881F991FCA95D2F70E9418150F900F90D2
:103A60000F900F90CF910C944211CF93873288F52D
:103A70008E3108F00BC18E3009F489C0D8F487303C
:103A800009F461C08B3009F44FC0863009F004C1DD
:103A90008091A401817F8E7F8093A4018EE996E0BE
:103AA0000E94AD058BED98E00E94AD0581E080930A
:103AB000B00147C0863109F4B2C020F4803109F466
:103AC0007CC0EAC0893109F493C08B3109F44BC042
:103AD000E3C0883349F150F4893209F4D9C0853301
:103AE00009F4D6C0873209F4D3C0D6C0833409F4B0
:103AF000CFC028F48A3308F4CFC08953CAC08834B1
:103B000009F0CAC00E9442118FEB98E00E94AD05F7
:103B10002FEF83ED90E3215080409040E1F700C00B
:103B200000000E94FD180DC085EC96E043C086EAB7
:103B300098E00E94AD058091A401897F877F8093E2
:103B4000A401C1E0AEC08091A401C82FC095C1708E
:103B5000C0FB80F98093A401CC2349F383EB98E068
:103B60000E94AD059EC09091A40191FBCC27C0F9A5
:103B700081E0C827892FC0FB81F98093A401CC2361
:103B800019F089E998E029C08BE898E013C090917A
:103B9000A40192FBCC27C0F981E0C827892FC0FB84
:103BA00082F98093A401CC2319F08CE798E015C02A
:103BB0008CE698E00E94AD05C4CF9091A40193FBE0
:103BC000CC27C0F981E0C827892FC0FB83F98093F7
:103BD000A401CC2351F080E698E00E94AD058091CD
:103BE000A40181608093A4015CC083E598E0E2CFEA
:103BF0008FE896E00E94AD0586E796E00E94AD054D
:103C000088E396E00E94AD058EEF95E00E94AD0539
:103C100088EC95E00E94AD058AE995E0CBCF8CE871
:103C200095E00E94AD050E94630B1F928F9382E77F
:103C300095E09F938F930E944606809112011F92F8
:103C40008F938BE595E09F938F930E94460680911A
:103C5000BD011F928F9388E495E09F938F930E94FC
:103C600046060E94A1189F938F937F936F9381E3E1
:103C700095E09F938F930E9446068DB79EB742961C
:103C80000FB6F8949EBF0FBE8DBF5BCF8D5101C0A4
:103C900080E00E94151D55CF81E598E00E94AD059A
:103CA000C0E08C2FCF91089580E0089580E00895C2
:103CB0008E518A3030F4E82FF0E0E75EFE4F8081CD
:103CC000089580E00895CF93C82F8091B00181308E
:103CD00071F020F0823009F44BC03FC1E091000147
:103CE000F09101018081823209F039C107C0E09171
:103CF0000001F09101018081823261F48C2F0E94D9
:103D0000541E811104C08C2F0E94351D2FC081E0EC
:103D100090E02CC08C2F0E94561E811126C0C43109
:103D2000E1F070F4CB3081F0C031D1F40E94DD1BA2
:103D300084E295E00E94AD0582E08093B00115C059
:103D4000C93259F0C83361F48EE996E00E94AD059E
:103D500088E295E00E94AD0508C01092B00101C153
:103D600082E295E00E94AD05FCC081E08170FBC05D
:103D7000C43228F5CE3108F0C1C0CB30A1F1D0F467
:103D8000C73009F0D0C08EE18093070182E38093B1
:103D900006018AE08093050184E18093040188E0B4
:103DA0008093030188E28093020188EC93E00E94F3
:103DB000AD05BCC0C33149F1C431C1F0B4C0CB348E
:103DC00009F4A6C028F4C93289F0C83361F0ABC049
:103DD000C13509F49BC0C23509F496C0CE3409F050
:103DE000A2C06AE09BC00E94DD1BA0C08091AF0111
:103DF000882319F01092AF0199C085ED93E00E94DD
:103E0000AD0581E08093B001AEC08FEA93E00E94DF
:103E1000AD058DE993E00E94AD05809107011F92E9
:103E20008F938AE993E09F938F930E94460688E9D7
:103E300093E00E94AD0586E893E00E94AD05809175
:103E400006011F928F9383E893E09F938F930E94C4
:103E5000460681E893E00E94AD0582E793E00E9468
:103E6000AD05809105011F928F938FE693E09F939C
:103E70008F930E9446068DE693E00E94AD058CE587
:103E800093E00E94AD05809104011F928F9389E514
:103E900093E09F938F930E94460687E593E00E94EC
:103EA000AD0582E493E00E94AD05809103011F926D
:103EB0008F938FE393E09F938F930E9446068DE349
:103EC00093E00E94AD0586E293E00E94AD058091EB
:103ED00002011F928F9383E293E09F938F930E943E
:103EE000460681E293E00E94AD058DB79EB74896E5
:103EF0000FB6F8949EBF0FBE8DBF18C08C2F0E94C6
:103F0000581E8093AF0112C061E003C061E006C09B
:103F10006AE08091AF010E94F41B08C08091AF015C
:103F20000E94971C03C086EC93E013C08091AF0100
:103F3000882369F01F928F9380EC93E09F938F9377
:103F40000E9446060F900F900F900F9004C08DEBCB
:103F500093E00E94AD0581E006C01092B00180E0C0
:103F600002C080E003CFCF9108958091BC010895F5
:103F70009FB7F8941092B3019FBF9091CB019430FA
:103F800009F057C09091E9009F703091EC00232F09
:103F9000217030FD20E8922B24E02093E90020914D
:103FA000EB0020FF43C02091EE0027FF3FC020918F
:103FB000B101222321F02091E80025FF37C01092A3
:103FC000B10126E03091E80035FD15C03091CB01FC
:103FD000343061F53091EB0035FD28C0215021F4DB
:103FE00081E08093B10122C0EFE9FFE03197F1F762
:103FF00000C00000E7CF8093F1008091E80085FDCC
:104000000AC08091E80080FFFCCF8091E8008E77A5
:104010008093E80006C08FB7F89421E02093B301A5
:104020008FBF9F709093E90080E008959F709093F8
:10403000E9008FEF08950F931F93CF93DF9300D084
:104040001F92CDB7DEB78C010E94CD22823011F0D5
:10405000843019F593E099831B830A839093E900D8
:104060008FEF9091E800815095FD06C095ED9A95EF
:10407000F1F700008111F5CF8091E80085FF0DC0B8
:1040800040E050E063E070E0CE0101960E94EA2239
:104090008091E8008E778093E8000F900F900F904A
:1040A000DF91CF911F910F910895CF93DF9300D0AF
:1040B0001F92CDB7DEB72091CB01243031F522E03D
:1040C0002983805891099B838A8383E08093E90048
:1040D0008FEF9091E800815095FD06C095ED9A957F
:1040E000F1F700008111F5CF8091E80085FF0DC048
:1040F00040E050E063E070E0CE0101960E94EA22C9
:104100008091E8008E778093E8000F900F900F90D9
:10411000DF91CF910895CF93DF93EC010E94CD22E0
:10412000823011F08430F9F482E08093E9009FEF4F
:104130008091E800915085FD06C085ED8A95F1F7E4
:1041400000009111F5CF8091E80085FF0CC040E0A0
:1041500050E065E070E0CE010E94EA228091E80024
:104160008E778093E800DF91CF910895CF93DF930E
:10417000EC010E94CD22823011F0843039F581E0CB
:104180008093E9009FEF8091E800915085FD06C083
:1041900085ED8A95F1F700009111F5CF8091E80047
:1041A00085FF14C040E050E068E070E0CE010E945E
:1041B000EA229091E8009E779093E80098E0FE0153
:1041C000A4EBB1E001900D929A95E1F7DF91CF91C8
:1041D000089584E099E00E94AD058091CA018111A3
:1041E00009C00E947F240E94DC248091E200846048
:1041F0008093E200089580E099E00E94AD0510925E
:10420000CA0108958CEF98E00C94AD0588EF98E012
:104210000C94AD0584EF98E00E94AD050C945B18FA
:104220002091B2012F5F822F62E30E94852799239C
:1042300019F02093B20108951092B2018091B30158
:10424000882371F18091CB01843041F58091E900A0
:104250008F702091EC00922F917020FD90E8892BB7
:1042600094E09093E9009091EB0090FF14C090913E
:10427000EE0097FF10C09091E80095FF03C01092E8
:10428000F100F9CF9091E80090FF05C09091E8000F
:104290009E779093E8008F708093E9001092B301AD
:1042A000089542E061EC81E00E94F92342E061EC74
:1042B00082E00E94F92342E061EC83E00E94F9234E
:1042C00042E261EC84E00C94F9238091CD018330CB
:1042D00009F453C030F4813071F0823009F48CC09D
:1042E00008958A3009F478C08B3009F45EC08930B3
:1042F00009F09AC020C08091CC01813A09F094C0A5
:104300008091E800877F8093E8008091D0019091B0
:10431000D101892B21F468E084EB91E003C060E0D7
:1043200080E090E070E00E9435238091E8008B7778
:104330008093E80008958091CC01813209F074C027
:104340008091D0019091D101892B09F06DC08091AD
:10435000E800877F8093E8008091E80082FD05C037
:104360008091CB018111F8CF5FC08091F1008093E3
:10437000BC018091E8008B7753C08091CC01813AD9
:1043800009F052C08091D0019091D101892B09F0A0
:104390004BC08091E800877F8093E8008091E8001F
:1043A00080FFFCCF8091120136C08091CC01813218
:1043B000D9F58091D0019091D101892BA9F58091F7
:1043C000E800877F8093E8000E942E248091CE0130
:1043D000809312010C9442118091CC01813221F51D
:1043E0008091E800877F8093E8000E942E248091CE
:1043F000CF018093BD0108958091CC01813AA1F451
:104400008091E800877F8093E8008091E80080FF3A
:10441000FCCF8091BD018093F1008091E8008E7700
:104420008093E8000C942E24089584B7877F84BF7E
:104430000FB6F894A8958091600088618093600021
:10444000109260000FBE80E88093610010926100BE
:104450000E94F00B0E947F240E94DC248091E200E5
:1044600084608093E20088EB9FE10E947D1778943E
:104470000E946A270E94F40B88E091E00E945E0B84
:1044800083EE98E00E94AD058091CB01853089F4E0
:104490008FED98E00E94AD050E9410188091C9012F
:1044A000882391F30E944218882371F30E94D4223A
:1044B000EBCF0E94280CE8CF0C945E22292F3327E3
:1044C00023303105C9F064F42130310581F0223008
:1044D000310509F049C084E790E024E439E048C0A0
:1044E0002132310521F12232310571F13DC082E1E5
:1044F00090E028EB39E03CC099278130910571F0BC
:104500002CF4892B89F5E0E4F9E00DC082309105A7
:1045100041F0039749F5E8E0F9E005C0E8E2F9E089
:1045200002C0EEE0F9E0849190E09F0121C0643088
:104530007105D0F4660F771FFB01E15DFE4F20810E
:10454000318189E090E014C06430710568F4FB01AA
:10455000EE0FFF1FE95DFE4F20813181FB01ED5D14
:10456000FE4F808190E004C080E090E020E030E0E9
:10457000FA013183208308950895CF93C82F0E94B4
:10458000BC22C093BE01CF9108958091CB018430AD
:1045900011F081E0089582E008958091BE018111BB
:1045A00002C00C94C522089580E189BD82E189BDD5
:1045B00009B400FEFDCF8091D8008F7D8093D80094
:1045C0008091E00082608093E0008091E00081FDB6
:1045D000FCCF0895CF92DF92EF92FF920F931F933B
:1045E000CF93DF93EC018B016A010E944D2481116E
:1045F00033C0C114D10439F0F60180819181081BC8
:10460000190BC80FD91FE12CF12C0115110519F157
:104610008091E80085FD16C08091E8008E77809338
:10462000E800C114D10449F0F60180819181E80EBF
:10463000F91EF182E08285E00FC00E944D2488239C
:1046400021F30AC089918093F10001501109FFEF15
:10465000EF1AFF0ADACF80E0DF91CF911F910F911F
:10466000FF90EF90DF90CF9008952091D20130918C
:10467000D3012617370748F06115710539F42091E9
:10468000E8002E772093E80001C0B90140E06115F1
:104690007105A9F12091CB01222309F443C02530F3
:1046A00009F442C02091E80023FD40C02091E800B9
:1046B00022FD32C02091E80020FFE9CF4091F300B5
:1046C0002091F20030E0342BFC01CF01611571051F
:1046D00059F02830310540F481918093F100615008
:1046E00071092F5F3F4FF1CF41E02830310509F0CC
:1046F00040E02091E8002E772093E800C8CF4111D8
:10470000C9CF0AC08091CB01882361F0853061F068
:104710008091E80083FD0AC08091E80082FFF2CF1B
:1047200080E0089582E0089583E0089581E008958F
:104730002091D2013091D3012617370748F0611537
:10474000710539F42091E8002E772093E80001C02C
:10475000B901FC0120E06115710591F18091CB0157
:10476000882309F440C0853009F43FC08091E800F7
:1047700083FD3DC08091E80082FD2FC08091E8005C
:1047800080FFE9CF2091F3008091F20090E0922B1E
:104790006115710559F08830910540F424912093FA
:1047A000F1003196615071090196F2CF21E008972E
:1047B00009F020E08091E8008E778093E800CBCF6D
:1047C0002111CCCF0AC08091CB01882361F08530C4
:1047D00061F08091E80083FD0AC08091E80082FFCB
:1047E000F2CF80E0089582E0089583E0089581E0AB
:1047F0000895982F973058F59093E900981739F05D
:104800007091EC002091ED005091F00003C0242F36
:10481000762F50E021FF19C03091EB003E7F30939E
:10482000EB003091ED003D7F3093ED003091EB00D7
:1048300031603093EB007093EC002093ED005093C7
:10484000F0002091EE0027FF07C09F5FD3CF8F704D
:104850008093E90081E0089580E008958091CC0183
:1048600087FF11C08091E80082FD05C08091CB01D7
:104870008111F8CF11C08091E8008B770BC0809137
:10488000CB01882349F08091E80080FFF8CF809128
:10489000E8008E778093E80008952091E40030913D
:1048A000E50095E64091EC00842F817040FF22C026
:1048B0008091E80080FD1CC08091CB01882391F09D
:1048C000853091F08091EB0085FD10C04091E400AF
:1048D0005091E5004217530729F39A01915011F7BF
:1048E00084E0089582E0089583E0089581E00895CA
:1048F00080E008954091E80042FFDECF08950E94D5
:10490000ED240E94F524E0EEF0E080818160808358
:10491000E8EDF0E080818F77808319BCA7EDB0E0EF
:104920008C918E7F8C9380818F7E80831092CA01C0
:1049300008950F931F93CF93DF930E94ED240E945D
:10494000F524C8EDD0E088818F77888388818068DE
:10495000888388818F7D888319BC1092CB01109247
:10496000C7011092C9011092C80100EE10E0F801D1
:1049700080818B7F808388818160888342E060E0D2
:1049800080E00E94F923E1EEF0E080818E7F808359
:10499000E2EEF0E0808181608083808188608083A6
:1049A000F80180818E7F8083888180618883DF9198
:1049B000CF911F910F910895E8EDF0E080818F7EF7
:1049C0008083E7EDF0E080818160808384E082BFB6
:1049D00081E08093CA010C949924E8EDF0E0808195
:1049E0008E7F80831092E20008951092DA00109278
:1049F000E10008951F920F920FB60F9211242F938A
:104A00003F934F935F936F937F938F939F93AF9356
:104A1000BF93EF93FF938091E10082FF0BC08091E1
:104A2000E20082FF07C08091E1008B7F8093E1006C
:104A30000E9410218091DA0080FF1FC08091D80071
:104A400080FF1BC08091DA008E7F8093DA00809116
:104A5000D90080FF0DC080E189BD82E189BD09B424
:104A600000FEFDCF81E08093CB010E94E92005C0CC
:104A700019BC1092CB010E94FB208091E10080FFC5
:104A800019C08091E20080FF15C08091E2008E7F06
:104A90008093E2008091E20080618093E200809147
:104AA000D80080628093D80019BC85E08093CB0148
:104AB0000E9406218091E10084FF30C08091E200D5
:104AC00084FF2CC080E189BD82E189BD09B400FE6C
:104AD000FDCF8091D8008F7D8093D8008091E10038
:104AE0008F7E8093E1008091E2008F7E8093E200D0
:104AF0008091E20081608093E2008091C701882369
:104B000011F084E007C08091E30087FD02C081E0DE
:104B100001C083E08093CB010E940A218091E100D3
:104B200083FF29C08091E20083FF25C08091E100CE
:104B3000877F8093E10082E08093CB011092C701D0
:104B40008091E1008E7F8093E1008091E2008E7F72
:104B50008093E2008091E20080618093E20042E075
:104B600060E080E00E94F9238091F00088608093EB
:104B7000F0000E940221FF91EF91BF91AF919F91B0
:104B80008F917F916F915F914F913F912F910F90F6
:104B90000FBE0F901F9018951F920F920FB60F9295
:104BA00011242F933F934F935F936F937F938F9332
:104BB0009F93AF93BF93CF93DF93EF93FF93C091F6
:104BC000E900CF708091EC00D82FD17080FDD0E843
:104BD0001092E9008091F000877F8093F000789434
:104BE0000E9410261092E9008091F0008860809366
:104BF000F000CD2BCF70C093E900FF91EF91DF91D2
:104C0000CF91BF91AF919F918F917F916F915F9164
:104C10004F913F912F910F900FBE0F901F901895BD
:104C20001F93CF93DF93CDB7DEB7AA970FB6F89453
:104C3000DEBF0FBECDBFECECF1E088E08E0F9091AF
:104C4000F10091938E13FBCF0E9465218091E800C3
:104C500083FF28C18091CC019091CD01492F50E074
:104C60004A30510508F01EC1FA01E556FF4F0C9479
:104C7000A527803821F0823809F014C108C080913E
:104C8000C8019091C901992389F082600FC0809179
:104C9000D0018F70873008F005C18093E9008091C2
:104CA000EB0085FB882780F91092E9009091E800DD
:104CB000977F9093E8008093F1001092F100D0C0AC
:104CC000282F2D7F09F0EEC0882319F0823061F083
:104CD000E9C08091CE01813009F0E4C0933009F041
:104CE00080E08093C9012EC08091CE0181112AC03D
:104CF0008091D0018F702FEF280F263008F0D2C09E
:104D00008093E9002091EB0020FF1CC0933021F438
:104D10008091EB00806214C09091EB0090619093C1
:104D2000EB0021E030E0A90102C0440F551F8A9535
:104D3000E2F74093EA001092EA008091EB0088606D
:104D40008093EB001092E9008091E800877F8093C8
:104D5000E8000E942E24A6C08111A4C01091CE01AB
:104D60001F778091E3008078812B8093E30080910E
:104D7000E800877F8093E8000E942E248091E8005D
:104D800080FFFCCF8091E30080688093E3001111E5
:104D900002C082E001C083E08093CB0183C08058D1
:104DA000823008F07FC08091CE019091CF018C3D80
:104DB00053E0950779F583E08A838AE289834FB7C8
:104DC000F894DE01139620E03EE051E2E32FF0E09C
:104DD00050935700E49120FF03C0E295EF703F5FCE
:104DE000EF708E2F90E0EA3010F0C79601C0C096A9
:104DF0008D939D932F5F243149F74FBF8091E80039
:104E0000877F8093E8006AE270E0CE0101960E94FD
:104E1000352315C06091D0017091D101AE014F5F73
:104E20005F4F0E945C22BC01892BE1F19091E80068
:104E3000977F9093E80089819A810E9498238091BE
:104E4000E8008B778093E8002DC0803859F5809179
:104E5000E800877F8093E8008091C7018093F1008C
:104E60008091E8008E7773CF81111CC09091CE01A4
:104E70009230C0F48091E800877F8093E80090939F
:104E8000C7010E942E248091C701811106C0809124
:104E9000E30087FD02C081E001C084E08093CB0184
:104EA0000E9451218091E80083FF0AC08091E800B0
:104EB000877F8093E8008091EB0080628093EB0015
:104EC000AA960FB6F894DEBF0FBECDBFDF91CF918B
:104ED0001F910895CF938091CB018823A1F0C091B9
:104EE000E900CF709091EC00892F817090FD80E8EF
:104EF000C82B1092E9008091E80083FD0E941026E3
:104F0000CF70C093E900CF910895991B79E004C058
:104F1000991F961708F0961B881F7A95C9F78095F8
:104F2000089597FB072E16F4009407D077FD09D05B
:104F30000E94AB2707FC05D03EF4909581959F4FCA
:104F40000895709561957F4F0895EE0FFF1F0590AE
:104F5000F491E02D0994AA1BBB1B51E107C0AA1FC5
:104F6000BB1FA617B70710F0A61BB70B881F991F0A
:104F70005A95A9F780959095BC01CD010895F999AE
:104F8000FECF92BD81BDF89A992780B50895A8E11A
:104F9000B0E042E050E00C94E727262FF999FECFCD
:104FA00092BD81BDF89A019700B4021639F01FBA7C
:104FB00020BD0FB6F894FA9AF99A0FBE089501969B
:104FC000272F0E94CE270C94CD27DC01CB01FC01BA
:104FD000F999FECF06C0F2BDE1BDF89A319600B452
:0E4FE0000D9241505040B8F70895F894FFCF5D
:104FEE0099012808140A321EB51FB6208B205520B1
:104FFE001B2001C69766943435010203040506078B
:10500E00080900404D36226F0A220AEC09CA0956D9
:08501E00096F098809A10900CE
:00000001FF
